:100000000C94A3050C94C0050C94C0050C94C00579
:100010000C94C0050C94BA2D0C94C0050C94C0052A
:100020000C94C0050C94E3460C9419300C94C00554
:100030000C94C0050C94FB2E0C94C0050C94C005C8
:100040000C94C0050C94C0050C94C0050C94C0051C
:100050000C947C090C94C0050C94E8080C94C00521
:100060000C94C0050C94C0050C94C0050C94C005FC
:100070000C94FD320C94C0050C94243092398C46BB
:100080008C468C469939D139D839823AB13A023BFB
:100090000A3B8C46283B4D3B9E3BA63BC93BE63B7F
:1000A0001D3C243C373C473C543C8C468C468C469B
:1000B0008C468C468C468C463F3C5E3C663C733C92
:1000C000A83CEB3CF33C8C468C468C46003D053D01
:1000D000223D8C468C468C468C468C468C468C4603
:1000E0008C468C468C468C468C468C468C468C4680
:1000F0008C468C468C468C468C468C468C468C4670
:100100008C468C468C468C468C468C468C468C465F
:100110008C468C468C468C468C468C468C468C464F
:100120008C468C468C468C468C468C468C468C463F
:100130008C468C468C468C468C468C468C468C462F
:100140008C46AE39433AF43A903B2F3D50556255B8
:10015000745586559855AA55BC55CE55E055F2555F
:100160000456165628563A564C565E5670568256C7
:100170009456A656B856C656D456E256F056FE5673
:100180000C571A57285736574457525760576E57CF
:100190007C578A579857A657B457C257D842F00A87
:1001A000050000000580F00A0400000000000000C7
:1001B000000000000000000000000000F00000004F
:1001C0000A40F00A000000000A40F00A00000000A7
:1001D000000000000000000000000000008000009F
:1001E000020000002880F00A7600000000000000F5
:1001F0000000000000000000000000004640F00A7F
:10020000050000000480F00A050000000000000066
:100210000000000000000000000000001E41F00A85
:10022000050000000480F00A050000000000000046
:100230000000000000000000000000003840F00A4C
:10024000050000003880F00A0500000000000000F2
:100250000000000000000000000000007D40F00AE7
:10026000050000000480F00A050000000000000006
:10027000000000000000000000000000D842B80BA1
:10028000050000000580F00A0400000000000000E6
:10029000000000000000000000000000D842B80B81
:1002A000050000000580F00A0400000000000000C6
:1002B000000000000000000000000000D8424006DE
:1002C000050000000580400604000000000000005A
:1002D000000000000000000000000000D842980864
:1002E00005000000058098080400000000000000E0
:1002F0000000000000000000000000007840DC0565
:1003000004000000000000000000000000000000E9
:100310000000000000000000000000009640DE0D1C
:100320000540DC05000000000000000000000000A7
:100330000000000000000000000000009680DE0DBC
:100340000580DC0500000000000000000000000047
:10035000000000000000000000000000D842FC087F
:10036000050000000580FC080400000000000000FB
:10037000000000000000000000000000987A800CDF
:10038000050000000580F00A0400000000000000E5
:100390000000000000000000000000006841B80BF1
:1003A00064441C0C050000000580F00A04000000F5
:1003B0005A421C0C0000000000000000D842540B00
:1003C000050000000580F00A0400000000000000A5
:1003D0000000000000000000000000001E00F00A05
:1003E0000480F00A0000000000000000000000008F
:1003F00000000000000000000000000014000000E9
:100400000540F00A140000000580F00A000000001A
:100410000000000000000000000000008483DE0DEA
:100420000580DC0500000000000000000000000066
:100430000000000000000000000000001E0000009E
:100440000480F00A0000000000000000000000002E
:100450000000000000000000000000006841B80B30
:100460006444B80B050000000580F00A0400000099
:100470005A421C0C000000000000000098BA98BA14
:10048000983A983A0887F0000200D48210000000E1
:1004900000000000000000000200C8851200568223
:1004A0000200000000000000D00700000000000073
:1004B0000000000000000000530057005B005F00D8
:1004C000630066006B006F00730078007C008100A1
:1004D00086008A008F0094009A009F00A400AA0062
:1004E000AF00B500BB00C100C700CD00D300D900EC
:1004F000DF00E600EC00F300F900000106010D0149
:1005000014011A01210128012F0136013C01430188
:100510004A01510157015E0165016C0173017901C6
:10052000800186018D0194019A01A001A701AD010E
:10053000B301BA01C001C601CC01D201D701DD016E
:10054000E301E801EE01F301F801FE0103020802F4
:100550000D02120217021B022002250229022D029F
:10056000320236023A023E02420246024A024D027C
:100570005102540258025B025F0262026502680285
:100580006C026E027102740277027A027C027F02B0
:1005900081028402860289028B028D028F029202FE
:1005A0009402960298029A029C029D029F02A10266
:1005B000A302A402530057005B005F0063006600C3
:1005C0006B006F00730078007C00810086008A0059
:1005D0008F0094009A009F00A400AA00AF00B5000D
:1005E000BB00C100C700CD00D300D900DF00E6008A
:1005F000EC00F300F900000106010D0114011A01DD
:10060000210128012F0136013C0143014A0151011A
:1006100057015E0165016C0173017901800186015A
:100620008D0194019A01A001A701AD01B301BA01A6
:10063000C001C601CC01D201D701DD01E301E8010F
:10064000EE01F301F801FE01030208020D0212029D
:1006500017021B022002250229022D023202360255
:100660003A023E02420246024A024D02510254023E
:1006700058025B025F026202650268026C026E024F
:100680007102740277027A027C027F028102840284
:10069000860289028B028D028F02920294029602D8
:1006A00098029A029C029D029F02A102A302A40248
:1006B0008000CC0540008440400000004000000065
:1006C0004000000093013C008141201C8000CC05CB
:1006D0004000844040000000400000004000000056
:1006E00093013C008141201C8000CC0540008440E7
:1006F00040000000400000004000000093013C006A
:100700008141201CEB017800EC000807EB007C0025
:10071000ED00401AE0000000F3013C00E141000060
:100720008900CC05490094034A001059400000009C
:100730004000000093013C008141201C8000CC055A
:1007400040008440400000004000000040000000E5
:1007500093013C008141201C8000E6024000623C85
:1007600040000000400000004000000093013C00F9
:100770008141201CE000E8FDE0000000E0000000F6
:10078000E0000000E0000000F3013C00E141201C1B
:100790008000E60220005A35200000002000000002
:1007A0002000000093013C008141201CE0011C025C
:1007B000E0010000E0010000E0000000E0000000B7
:1007C000E0013C00E141201C8000CC054000944E3B
:1007D00040000000400000004000000093013C0089
:1007E0008141201C8000CC05400084404000000076
:1007F000400000004000000093013C008141201CAB
:100800008000CC0520008440200000002000000073
:100810002000000093013C008141201C8700CC0592
:100820004700944E400000004000000040000000DF
:1008300093013C008141201C8700CC054700944E69
:1008400040000000400000004000000093013C0018
:100850008141201C8700CC052700944E2000000019
:10086000200000002000000093013C008141201C7A
:100870007500640031009200F0005F003200FF005C
:100880001E000A006E0043003500A5009B007D009D
:100890003F040A3F040A3E040A2020003F080A3EA3
:1008A000080A20200A0000000404050000003E0899
:1008B0000A38100A38100A3F080A3F080A3F080A97
:1008C000230014002300140008000C0008000C0092
:1008D00005000800050008000200020002000200F6
:1008E00011000A0011000A000C0007000C000700AC
:1008F00003000700030007000200020002000200DC
:1009000005000600050006000200020002000200C9
:1009100008000D0008000D0002000700020007009B
:100920000200020002000200240018002400180047
:100930000800050008000500080003000800030087
:10094000230014002300140008000C0008000C0011
:100950000500080005000800020002000200020075
:1009600011000A0011000A000C0007000C0007002B
:10097000030007000300070002000200020002005B
:100980000500060005000600020002000200020049
:1009900008000D0008000D0002000700020007001B
:1009A00002000200020002002400180024001800C7
:1009B0000400030002000100080003000800030017
:1009C000D701D7019A01D701D7019A01B301B30129
:1009D00073015E015E014A01D701D7019A01B3019B
:1009E000B3017301B301B3017301B301B301730127
:1009F000B301B3017301B301B3017301D701D7018F
:100A00009A01B301B3017301B301B3017301D701BB
:100A1000D7019A01D701D7019A01D701D7019A01CD
:100A2000B423BE8701FFB910AF1800FF8C0A9610DF
:100A300001FF9604AF1201FFAF22B91500FFAF18F6
:100A4000B90E00FF9606AF0F01FF64047D1201FF8F
:100A5000820A960C01FF64047D1201FFB910AF1ADF
:100A600000FF7D04960F01FF87059B0401FFAF483F
:100A7000B93000FFA018AA0F00FFAF12B90800FF9D
:100A8000B423BE8701FFB910AF1800FF8C0A96107F
:100A900001FF9604AF1201FFAF22B91500FFAF1896
:100AA000B90E00FF9606AF0F01FF64047D1201FF2F
:100AB000820A960C01FF64047D1201FFB910AF1A7F
:100AC00000FF7D04960F01FF87059B0401FFAF48DF
:100AD000B93000FF96099B0700FFAF12B90800FF6D
:100AE000000099AADD058F96D1078F8CB90B8F8CEA
:100AF000750E8F8295118F7DA9168D7800008FA5B8
:100B000021038F78B1048A6E09078A646109885FBE
:100B1000810C885AA10F885A0000B2C35902ADBE99
:100B2000B104ADBE0907ADB461099E96810C8F6E0C
:100B3000A10F8F640000FFFF00FF0000FFFF00FF18
:100B40000000FFFF00FF11241FBECFEFD0E1DEBF8A
:100B5000CDBF11E0A0E0B1E0ECEAF7EC02C00590F7
:100B60000D92A034B107D9F716E0A0E4B1E001C0BE
:100B70001D92A43DB107E1F70E94505E0C94D4632E
:100B80000C94000088E781B985E184B98CEF87B9BE
:100B90008AE38AB980E880BF089580E185BF88E74D
:100BA00081B912B81092350585E184B915B8109253
:100BB000AE018CEF87B980EE88B980932C058AE36B
:100BC0008AB99AE09BB99093A4011092C50039E1CB
:100BD0003093C40082E28093C00088E18093C1001A
:100BE00086E08093C2008093CD008DE68093CC0098
:100BF00080E28093C80088E08093C9008EE88093EB
:100C0000CA0080E680937C0084E880937A0010928A
:100C10007B0022E0209380009093810088E092E5A1
:100C2000909389008093880010926F002093B00009
:100C300084E08093B1003093B3002093700080E88B
:100C400080BF089590916106EFEEF3E0E90FF11D8A
:100C5000808380916106E0EDF1E0E80FF11D608393
:100C600080916106E2E0F6E0E80FF11D408380919B
:100C700061068F5F8093610680916106823311F473
:100C800010926106909161068091C903981759F4FA
:100C90008091C9038F5F8093C9038091C903823318
:100CA00011F41092C903089590916205EAEAF5E003
:100CB000E90FF11D808380916205EBE7F2E0E80F18
:100CC000F11D6083809162058F5F80936205809142
:100CD0006205823311F41092620590916205809151
:100CE0001503981759F4809115038F5F80931503AE
:100CF00080911503823311F41092150308950F9318
:100D00001F9352E050937F0682ED8093350488EE66
:100D100093E0909329048093280484E68093B301A0
:100D200083E090E09093AD018093AC0141E040936B
:100D30006F06109274061092730688EC90E0909300
:100D40006C0180936B01109261061092C90310929E
:100D500062051092150310921B0510923B0610922B
:100D60008E0510924A0210926A06109259018EE086
:100D700080938C014093D10680918C018093550221
:100D8000109262011092610169EB76E0FB01208113
:100D90000CEC14E0F80130811092FC051092630510
:100DA00010927E0610924006109260028CE390E052
:100DB000909392018093910110924C0410924B04F5
:100DC000ECEFF2E0808180644093FD028E7F8083AF
:100DD0001092F4051092F30580E48093A8048093A8
:100DE00022051092FD0580E090E0A0E0B0E0809345
:100DF000040290930502A0930602B093070210929A
:100E00002A05109229058FEF9FEF90933D04809360
:100E10003C042570FB0120833973F8013083109264
:100E200082061092CF041092EA02ADE1B3E09C91E9
:100E30009F709C93E8E5F2E0808110927505109216
:100E40004802807880831092D5021092BE061092DC
:100E5000E302109299011092C2061092610310925F
:100E60007A0683E08093CA0380919901866180931A
:100E70009901509379058091C20686608093C206DD
:100E800010924B0283E28093BD0290619C9388E7AD
:100E900080931D0510923A06109261061092620529
:100EA00010921B051092C9031092150310923B0675
:100EB00080E090E025E836E0F901E80FF91F1082A4
:100EC000019683319105C1F7EFE5F5E08081877FD9
:100ED00080831092AD02E8E4F5E080818F77808313
:100EE000EFE1F3E0308110924C021092DC0310929B
:100EF000DB03109247021092460210922B041092CC
:100F00002A041092B2021092B10288E893E1909301
:100F10000B0280930A02A7EBB2E02C912B7F226098
:100F200010925F0210925E02109225031092270425
:100F30001092D5031092D40310924406822F877F1B
:100F40008C931092AD0310922103109242041092E0
:100F5000410410923D0510923C051092AF0310928F
:100F6000AE031092CE031092CD0342EE54E05093A4
:100F70002505409324058EEE92E0909365018093C1
:100F800064013A7F3860308310928B0110928A019D
:100F900080ED97E09093F4028093F30210920E0399
:100FA0001092B80210924C0110923F0610923E0629
:100FB00010927605109249061092480650937E05CD
:100FC00040937D05109202028091020280936E018F
:100FD0001092D70310920F02E9EEF3E080818F7731
:100FE0008083EBE2F0E080818061808380818F7D6F
:100FF000808381E080935702EAECF0E08081886092
:10100000808310922E0410922D0484E58093920325
:1010100010922003ECEFF2E080818F7E80831092AB
:101020003004109250021092E5021092E4021092E5
:10103000D6021092AD0427732C9384E893E090932A
:10104000D2038093D1031092AB011092AA011092A7
:101050009F0110929E0105E416E0F80120812460B2
:101060008CED95E09093490480934804277F20837A
:101070008CE980931803609118038FE141E00E948E
:1010800054068EE591E090932D0380932C038AEA19
:1010900090E09093940380939303F80180818F7D77
:1010A00080831092FD021092C1061092C006E7E301
:1010B000F5E080818E7F80831F910F91089590913C
:1010C0001B05E4E5F4E0E90FF11D808380911B0529
:1010D000E0E1F2E0E80FF11D608380911B058F5F76
:1010E00080931B0580911B05823311F410921B0520
:1010F00090911B0580913B06981759F480913B060F
:101100008F5F80933B0680913B06823311F41092EF
:101110003B06089590918E05E3E9F1E0E90FF11D9A
:10112000808380918E05EDEAF6E0E80FF11D608383
:1011300080918E058F5F80938E0580918E0586301D
:1011400011F410928E0590918E0580914A029817A5
:1011500059F480914A028F5F80934A0280914A023B
:10116000863011F410924A020895982F8091B906A2
:1011700081FD2DC090937C051092A00180917C058B
:101180008093C6006093AE02109238064093A60585
:1011900080917C0580937402909174028091AE02DC
:1011A000890F8093740280917402840F809374027B
:1011B00080917402809580937402E9EBF6E080815F
:1011C00082688083E1ECF0E0808180648083089510
:1011D0001F920F920FB60F9211248F93AF93BF936C
:1011E000EF93FF938091A0018F5F8093A001809186
:1011F000A001853008F455C01092A001A1ECB0E028
:101200008C918F7B8C9310929605E9EBF6E08081B0
:101210008E7F80838C9180688C9380917C05833055
:1012200081F582E08093360480818F7A8083ECECB4
:10123000F4E080818F7780838091AE028A3429F434
:10124000E9EBF6E08081806180838091AE02803599
:1012500029F4E9EBF6E08081806480838091AE021E
:10126000863629F4ECECF4E08081806880838091FC
:10127000AE028736B9F5ECECF4E0808180688083BB
:1012800031C080917C05823021F481E08093360466
:1012900029C080917C05833229F582E08093360451
:1012A00021C08091A001823071F0833018F4813028
:1012B00029F406C0833051F0843059F080E00BC02F
:1012C0008091380608C08091AE0205C08091A605C5
:1012D00002C0809174028093C600E1ECF0E080814E
:1012E00080648083FF91EF91BF91AF918F910F90B8
:1012F0000FBE0F901F9018951F920F920FB60F926E
:1013000011242F933F934F935F936F937F938F930A
:101310009F93AF93BF93EF93FF932091C6001092DA
:10132000EC0385E090E090936C0180936B018091D9
:1013300096058F5F8093960580919605813019F40C
:1013400020939505FBC280919605823009F0F6C284
:1013500080919505820F80935B0280915B028F3FA5
:1013600009F0ECC282E390E090936C0180936B01F2
:101370001092EC038AE080932F04E9EBF6E0808181
:101380008D7F808380913604813009F058C180912F
:101390006F06882329F48091C204809363051AC0E4
:1013A00080916F06813029F48091C30480937E067A
:1013B00011C080916F06823029F48091C40480931B
:1013C000400608C080916F06833021F48091C504E7
:1013D0008093600280916F0690919505E2ECF4E0B5
:1013E000E80FF11D908390918E0580914A02981725
:1013F000A9F080914A02E3E9F1E0E80FF11D608174
:1014000080914A02EDEAF6E0E80FF11D408183E0A9
:101410000E94B50882E08093AF0100C1809158021C
:1014200085FF0AC04091950383E06BE40E94B508F4
:101430008CE08093AF01F2C080911D0384FF0AC04D
:101440004091BD0283E067E00E94B50883E080938D
:10145000AF01E4C080911D0385FF0AC04091550291
:1014600083E069E40E94B50884E08093AF01D6C0B0
:1014700080911D0386FF0AC04091E30283E063E58B
:101480000E94B50885E08093AF01C8C080911D031C
:10149000882354F44091990183E064E50E94B508E3
:1014A00086E08093AF01BAC08091580280FF0AC0E5
:1014B0004091C20683E065E50E94B50887E080930D
:1014C000AF01ACC08091580281FF0AC04091610316
:1014D00083E066E50E94B50888E08093AF019EC076
:1014E0008091480585FF0AC040917A0683E067E550
:1014F0000E94B5088DE08093AF0190C08091E90310
:1015000082FF0AC04091720183E069E50E94B5083C
:1015100087E18093AF0182C08091580282FF0AC0A8
:101520004091670583E06CE40E94B50889E08093F0
:10153000AF0174C08091580283FF0AC040918406B5
:1015400083E06EE40E94B5088AE08093AF0166C034
:101550008091580284FF0AC04091260583E06FE421
:101560000E94B5088BE08093AF0158C0909162054E
:10157000809115039817A9F080911503EAEAF5E028
:10158000E80FF11D608180911503EBE7F2E0E80FB1
:10159000F11D408183E00E94B50885E18093AF0191
:1015A0003DC0909161068091C9039817A9F0809180
:1015B000C903EFEEF3E0E80FF11D60818091C903EC
:1015C000E0EDF1E0E80FF11D408183E00E94B508F5
:1015D00081E08093AF0122C090911B0580913B0672
:1015E0009817A9F080913B06E4E5F4E0E80FF11DBF
:1015F000608180913B06E0E1F2E0E80FF11D40815F
:1016000083E20E94B50886E18093AF0107C0E9EB51
:10161000F6E080818F7780831092AF01E9EBF6E0EE
:101620008081816080838091AF01882309F486C125
:101630008AE090E090936C0180936B017FC1809170
:1016400095058A3A09F075C1E9EBF6E08081816081
:10165000808384FF08C01092C304877E8083109229
:10166000C9041092C8048091B90686FF10C0A9EB86
:10167000B6E0982F8F7D8C93E2ECF4E0808181704E
:1016800080839F799C931092E7021092E6028091EA
:10169000CC04882394F4ECECF4E08F7B808380917D
:1016A0009405882319F41092C40402C01092C50452
:1016B000ECECF4E080818F7780838091AF01813002
:1016C00069F48091C9038F5F8093C9038091C90336
:1016D000823309F02EC11092C9032BC18091AF0152
:1016E000853169F4809115038F5F80931503809194
:1016F0001503823309F01DC1109215031AC18091A0
:10170000AF01863169F480913B068F5F80933B0681
:1017100080913B06823309F00CC110923B0609C14F
:101720008091AF01823069F480914A028F5F80938B
:101730004A0280914A02863009F0FBC010924A02A8
:10174000F8C08091AF01833089F4E8E8F6E0808149
:101750008F5F80838081833009F0EBC0EDE1F3E09F
:1017600080818F7E808310928806E3C08091AF01D4
:10177000843089F4E9E8F6E080818F5F808380819E
:10178000833009F0D6C0EDE1F3E080818F7D808366
:1017900010928906CEC08091AF01853089F4EAE8C5
:1017A000F6E080818F5F80838081833009F0C1C043
:1017B000EDE1F3E080818F7B808310928A06B9C0CF
:1017C0008091AF01863089F4EBE8F6E080818F5F8D
:1017D00080838081833009F0ACC0EDE1F3E080814B
:1017E0008F77808310928B06A4C08091AF018730E1
:1017F00089F4ECE8F6E080818F5F8083808183301C
:1018000009F097C0E8E5F2E080818E7F8083109236
:101810008C068FC08091AF01883089F4EDE8F6E046
:1018200080818F5F80838081833009F082C0E8E50A
:10183000F2E080818D7F808310928D067AC0809146
:10184000AF018D3089F4E2E9F6E080818F5F80831B
:101850008081833009F06DC0E8E4F5E080818F7D00
:1018600080831092920665C08091AF01873189F420
:10187000ECE9F6E080818F5F80838081833009F01E
:1018800058C0E9EEF3E080818B7F808310929C0644
:1018900050C08091AF01893089F4EEE8F6E0808194
:1018A0008F5F80838081833009F043C0E8E5F2E0F8
:1018B00080818B7F808310928E063BC08091AF0128
:1018C0008A3081F4EFE8F6E080818F5F8083808149
:1018D000833079F5E8E5F2E08081877F808310929C
:1018E0008F0627C08091AF018B3081F4E0E9F6E0EC
:1018F00080818F5F808380818330D9F4E8E5F2E0D6
:1019000080818F7E80831092900613C08091AF01FA
:101910008C3079F4E1E9F6E080818F5F808380810B
:10192000833039F4E8E5F2E080818F7D8083109286
:101930009106E9EBF6E080818F778083FF91EF914C
:10194000BF91AF919F918F917F916F915F914F91D7
:101950003F912F910F900FBE0F901F9018951F93DE
:10196000CF93DF938330A1F1843028F48130D1F01C
:10197000823018F50CC0853009F440C0853098F1EC
:10198000863009F446C0873009F059C04DC080E662
:1019900080937C0010E0A0E0B0E06FEF73E020E007
:1019A00030E057C081E680937C0010E0A0E0B0E01A
:1019B0006FEF73E020E030E04CC082E680937C0063
:1019C00010E0A0E0B0E06FEF73E020E030E041C055
:1019D00083E680937C0010E0A0E0B0E06FEF73E05E
:1019E00020E030E036C084E680937C0010E0A0E088
:1019F000B0E06FEF73E020E030E02BC085E680932D
:101A00007C0010E0A0E0B0E06FEF73E020E030E099
:101A100020C086E680937C0010E0A0E0B0E06FEF8D
:101A200073E020E030E015C087E680937C0010E092
:101A3000A0E0B0E06FEF73E020E030E00AC080E6A5
:101A400080937C0010E0A0E0B0E06FEF73E020E056
:101A500030E0EAE7F0E0C8E7D0E08081806480838E
:101A60008081806C8083808186FDFDCF8081806451
:101A70008083808186FDFDCF88819981AC0100241F
:101A8000440F551F001C440F551F001C452F502D9F
:101A900080818F738083240F351FA417B50708F446
:101AA000DA014617570708F4BA011F5F1A30A9F682
:101AB000261B370B2A1B3B0B36952795369527950A
:101AC00036952795822F932FDF91CF911F910895FF
:101AD000DF92EF92FF920F931F93CF93DF9380914A
:101AE000FC0284FD61C080918C0136E0839FC001BF
:101AF000112440E25AE0FA01E80FF91FF4908091B6
:101B00008C01839FC00111240196FA01E80FF91F8F
:101B1000E4916AE0E69F8001112480918C01839F0B
:101B2000C00111240496FA01E80FF91FE491DE2E9A
:101B3000D694D694D694D69480918C0123E0829F3B
:101B4000C00111240196880F991FFA01E80FF91FAF
:101B5000249180918C01839FC00111240396FA0186
:101B6000E80FF91FE491E69FD001112480918C01C8
:101B7000839FC00111240496480F591FFA01449114
:101B80000F2EFFE0EF2EF02DE4228091DA02C82F15
:101B9000DD27C7FDD0958091C104682F772767FDA9
:101BA00070954F2D522F60C080918C0136E0839F3D
:101BB000C001112440E85AE0FA01E80FF91FF4903F
:101BC00080918C01839FC00111240196FA01E80FD6
:101BD000F91FE4916AE0E69F8001112480918C0155
:101BE000839FC00111240496FA01E80FF91FE491C4
:101BF000DE2ED694D694D694D69480918C0123E090
:101C0000829FC00111240196880F991FFA01E80FE5
:101C1000F91F249180918C01839FC00111240396A8
:101C2000FA01E80FF91FE491E69FD0011124809199
:101C30008C01839FC00111240496480F591FFA019B
:101C400044910F2EFFE0EF2EF02DE4228091DA0276
:101C5000C82FDD27C7FDD0958091C104682F772755
:101C600067FD70954F2D522F8091AE0184FD46C1C6
:101C700080917602882309F041C18091C002481703
:101C800000F58091420290914302885E9D4F48F496
:101C90008091420290914302019690934302809377
:101CA00042022091420230914302CB01800F911FEA
:101CB0008217930788F4E3EDF3E0808184608083EA
:101CC0000BC0DD2049F41092430210924202E3ED72
:101CD000F3E080818B7F80838091C002581700F5EC
:101CE0008091E8029091E902885E9D4F48F48091CE
:101CF000E8029091E90201969093E9028093E8024C
:101D00002091E8023091E902CE018A0F9B1F8217D1
:101D1000930788F4E3EDF3E08081886080830BC053
:101D2000EE2049F41092E9021092E802E3EDF3E0AC
:101D30008081877F80838091D30382FF22C083FFCD
:101D400020C080918C01E0E3F1E0E80FF11D80817B
:101D5000882374F481E080930D0580918C01E0E389
:101D6000F1E0E80FF11D80818F778093870509C02E
:101D700010920D051092870580E480937D06809374
:101D8000DD0380913104882361F52EE63AE0F90104
:101D9000849180934A063196E4914AE0E49FC00121
:101DA00011249093460180934501F9013296E49104
:101DB000E0933C06F9013396E491E49FA0011124DD
:101DC0005093E1034093E0032C5F3F4FF9012491CE
:101DD000822F82958F7080935B012F7020938D05E9
:101DE0002BC02CE53AE0F901849180934A063196A4
:101DF000E4914AE0E49FC00111249093460180934E
:101E00004501F9013296E491E0933C06F9013396DD
:101E1000E491E49FA00111245093E1034093E00377
:101E20002C5F3F4FF9012491822F82958F70809310
:101E30005B012F7020938D059091C00280914A061E
:101E4000891718F58091680690916906885E9D4F04
:101E500048F480916806909169060196909369060E
:101E60008093680680914501909146012091680613
:101E700030916906860F971F8217930770F4E3ED80
:101E8000F3E080818061808308C080915B018823BA
:101E900021F410926906109268069091C002809118
:101EA0003C06891718F58091B5069091B606885EB4
:101EB0009D4F48F48091B5069091B6060196909397
:101EC000B6068093B5068091E0039091E1032091DE
:101ED000B5063091B6068C0F9D1F8217930770F4DC
:101EE000E3EDF3E080818062808308C080918D05FE
:101EF000882321F41092B6061092B506DF91CF9197
:101F00001F910F91FF90EF90DF9008951F93CF9353
:101F1000DF93182F42E150E0C6E7D1E0ADE4B6E030
:101F200065E673E09A012F5F3F4FFE01E40FF51F56
:101F30008081FE01E20FF31F8083FD01E40FF51F96
:101F40008081FD01E20FF31F8083CA01880F991F72
:101F5000FB01E80FF91F80819181220F331FFB01E4
:101F6000E20FF31F91838083415050408FEF4F3F2A
:101F70005807C1F61093760180918C0180934D062D
:101F80008091C6069091C70690936603809365037F
:101F9000E3EDF3E080818260808310921E03DF9185
:101FA000CF911F91089590918C0180917B05981796
:101FB00009F580917B05873059F42091A801309173
:101FC000A90180917702909178022817390791F43E
:101FD000909120058091A404981761F49091CA0310
:101FE00080916605981731F48091C20680618093D4
:101FF000C20605C08091C2068F7E8093C206E8E5C6
:10200000F2E0808181608083089588E08093FD0202
:10201000ECEFF2E08081806480830895813009F0E4
:102020005BC08091BE0680FF06C080916103806224
:102030008093610305C0809161038F7D809361036C
:102040008091BE0681FF06C080916103806180930C
:10205000610305C0809161038F7E8093610380914D
:10206000BE0682FF06C08091C20681608093C206D0
:1020700005C08091C2068E7F8093C2068091BE0605
:1020800083FF06C08091990188608093990105C003
:1020900080919901877F809399018091BE0684FF8A
:1020A00006C08091E30280628093E30205C08091C4
:1020B000E3028F7D8093E3028091BE0685FF06C018
:1020C0008091C20688608093C2061AC08091C206C1
:1020D000877F8093C20614C08091E3028F7D809336
:1020E000E30280919901877F809399018091C206D4
:1020F000867F8093C206809161038F7C8093610309
:10210000EDE1F3E08081806C8083E8E5F2E080819E
:102110008360808308950F931F938091D702882353
:102120000CF05EC28091710280FF5AC28091180348
:10213000863389F480E10E94860F8091BD02883445
:1021400009F44EC286E080939503E8E5F2E08081D1
:102150008062808345C28091BD028C3B09F053C0F0
:10216000809153028C3019F40E94051035C087E12C
:102170008093BD02EDE1F3E0808180618083E3EE36
:10218000F2E080818E7F8460808384E10E94860FEC
:102190008EE180933A068CE390E090934C04809318
:1021A0004B04EFE1F3E080818460808381E08093E1
:1021B00021038091B70281FD07C0E7EBF2E0846064
:1021C000808381E080934C0283E080939503E8E56F
:1021D000F2E0808180628083EDE1F3E080818064C1
:1021E0008083EEEAF1E080818B7E808310926C0028
:1021F000E8E6F0E080818D7F8083E8E5F2E0808191
:102200008F7B8083EDC18091BD028A3771F589E6AD
:102210008093BD02ADE1B3E09C91E3EEF2E08081FA
:102220008E7F8460808390659C9310920C03109243
:102230000B03EFE1F3E080818460808381E0809391
:1022400021038091B70281FD07C0E7EBF2E08460D3
:10225000808381E080934C0283E080939503E8E5DE
:10226000F2E0808180628083BBC18091BD028834AE
:1022700089F580918D0390918E03892BF1F48091E3
:1022800018038C39D1F4E3EDF3E080818F778083FC
:1022900080913D06843028F08091FC0288230CF464
:1022A0009FC180913D068F5F80933D0660913D0602
:1022B0008AE541E00E94540693C180915F0582FF48
:1022C0008FC186E080939503E8E5F2E0808180622B
:1022D000808386C18091BD028C3509F051C0809108
:1022E000FC0280FD41C085EE8093BD02ADE1B3E00C
:1022F0009C91E3EEF2E0808181608B7F808390652A
:102300009C93EFE5F5E080818F7B80838091610372
:102310008E7F80936103A8E5B2E09C91892F826053
:102320008C93ECEFF2E080818D7F80831092E2024B
:102330001092E1021092670610926606EEEAF1E052
:1023400080818461808388E080936C00E8E6F0E01F
:102350008081826080838EE180933A0682E0809360
:10236000950392669C933CC186E30E94860F86E0AB
:1023700080939503E8E5F2E080818062808330C13C
:102380008091BD02853E09F04CC087E18093BD027B
:102390000DE113E0F801808180618083E3EEF2E0DB
:1023A00080818E7F8460808384E10E94860F8EE12D
:1023B00080933A06F801808180648083EEEAF1E040
:1023C00080818B7E808310926C00E8E6F0E0808153
:1023D0008D7F8083E8E5F2E080818F7B8083EFE171
:1023E000F3E020818CE390E090934C0480934B04C5
:1023F0002560208381E0809321038091B70281FDD5
:1024000007C0E7EBF2E08460808381E080934C02B8
:1024100083E080939503E8E5F2E080818062808329
:10242000DFC08091BD028E3A49F48AE08093FD02BC
:10243000ECEFF2E0808180648083D2C08091180349
:102440008C3909F0CDC080918C018E3109F4C8C05F
:102450008091FC0280FDBCC080911D058C3289F406
:102460008AE78093BD02EDE1F3E0808180618083A3
:1024700082E080939503E8E5F2E0808180628083CA
:1024800071C08091BD02873109F04AC080911F035D
:1024900080FF46C085EE8093BD02ADE1B3E09C9124
:1024A000E3EEF2E0808181608B7F808390659C9376
:1024B000EFE5F5E080818F7B8083809161038E7FE3
:1024C00080936103A8E5B2E09C91892F82608C9390
:1024D000ECEFF2E080818D7F80831092E202109217
:1024E000E1021092670610926606EEEAF1E0808142
:1024F0008461808388E080936C00E8E6F0E080816E
:10250000826080838EE180933A06EFE1F3E0808180
:102510008E7F808382E08093950392669C9322C095
:102520008091BD028C3511F4809365058CEB80930E
:10253000BD02EDE1F3E080818061808382E08093E1
:102540009503E8E5F2E08081806280838EE18093EC
:102550003A06EFE1F3E080818B7F80831092BB0429
:102560001092BA04E3EEF2E0808181608B7F808379
:10257000EDE1F3E08081806480830CEF12E0F801EC
:102580008081877F8083EEEAF1E0808180618083B3
:1025900088E080936C00E8E6F0E0808182608083D0
:1025A000E8E5F2E08081806480831092FD02EEEB2A
:1025B000F6E08081897C808381E00E940E10F80122
:1025C00080818F7B808310920C0310920B0308C0D4
:1025D00086E080939503E8E5F2E080818062808365
:1025E000E7EDF2E080818F7780831F910F9108954E
:1025F0008AE08093650680916D05823018F482E050
:1026000080936D0508958038B1F580913B04843145
:1026100061F5809107038C3841F58091910190918B
:102620009201892BE1F480914B0490914C04892B09
:10263000B1F480914C01882391F48091FC028823AD
:1026400074F08091450685FD0AC08091480581FDA2
:1026500006C0E5E3F5E080818061808311C0E5E399
:10266000F5E080818F7E80830BC0E5E3F5E080811B
:102670008F7E808305C0E5E3F5E080818F7E8083D7
:102680008091BD028C3B09F0DDC0809153028A30FD
:1026900008F0D8C08091910190919201892B09F0A6
:1026A000D1C08091FC0288230CF4C6C080914506FD
:1026B00085FDC2C08FEF8093B2048093760680912F
:1026C0005302843050F480918C01843031F4E5E37E
:1026D000F5E0808180648083089580911F0381FFED
:1026E00006C0E5E3F5E080818064808308958091F1
:1026F000E90385FF2BC08091900390919103863967
:10270000910530F09091C8038091B204981730F091
:10271000E5E3F5E0808180648083089580919003F3
:10272000909191038C52914060F49091C8038091F4
:102730007606891730F0E5E3F5E080818F7B8083B2
:1027400008951092910310929003089580914F0480
:10275000909150048559924008F18091BF068835C8
:1027600060F49091C80380917606891730F0E5E314
:10277000F5E080818F7B808308958091BF06893545
:1027800038F49091C8038091B204981708F477C088
:10279000E5E3F5E0808180648083089580910D02F7
:1027A00090910E0281359105D8F080910D029091A3
:1027B0000E0220912E0530912F05805590408217F2
:1027C000930771F480918105882351F48091BF06AD
:1027D0008F3430F084E690E090934E0480934D0463
:1027E00080914D0490914E04892B31F0E5E3F5E0A2
:1027F00080818064808308958091BF06883560F46D
:102800009091C80380917606891730F0E5E3F5E0F2
:1028100080818F7B808308958091BF06893530F455
:102820009091C8038091B204981748F1E5E3F5E070
:102830008081806480830895E5E3F5E080818F7B6B
:1028400080830895E5E3F5E080818F7B808380912C
:10285000910190919201892B91F08091FC02882343
:1028600024F08091450685FF0AC08CE390E09093A8
:1028700092018093910110924C0410924B040895A0
:102880008091DD03803490F18091BD02873121F089
:102890008091BD028C3571F480911F0384FD04C0CA
:1028A000EFE1F3E080628083EFE1F3E0808180611B
:1028B000808308958091AD02853608F4A2C0EFE1CF
:1028C000F3E080818F7E808380917A068F7B809376
:1028D0007A0680917A06886380937A06E8E4F5E0C8
:1028E0008081806280831092AD0208958091DD0323
:1028F0008032F0F18091AE0184FF03C085E08093C7
:102900007602EEEAF1E080818F7E80838091BD02C5
:10291000873121F08091BD028C3571F480911F03C5
:1029200084FD04C0EFE1F3E080628083EFE1F3E037
:1029300080818061808308958091AD02853608F49E
:1029400060C0EFE1F3E080818F7E808380917A0622
:102950008F7980937A0680917A06886180937A06CF
:10296000E8E4F5E08081806280831092AD020895F2
:1029700080916302909164028A3A910568F0809197
:102980006302909164028F55914030F4EEEAF1E0D9
:1029900080818F7E808305C0EEEAF1E080818061D6
:1029A00080838091BD02873121F08091BD028C35FA
:1029B00071F480911F0384FD04C0EFE1F3E08062B5
:1029C0008083EFE1F3E080818061808308958091CE
:1029D000AD028536B0F0EFE1F3E080818F7E808339
:1029E00080917A068F7880937A0680917A06886043
:1029F00080937A06E8E4F5E080818062808310921B
:102A0000AD020895CF93DF93DC014FE35EE360E016
:102A100071E0C4EBD5E0573010F0569508C06F5FF9
:102A20006A30E1F04D37D1F04423C1F0572F842FA5
:102A300090E0880F991F9E01280F391FF901859199
:102A400094918A179B0710F4450FE5CFF901859102
:102A50009491A817B90710F4451BDDCF842FDF919F
:102A6000CF910895CF93DF93DC014FE35EE360E005
:102A700071E0C8EBD4E0573010F0569508C06F5F96
:102A80006A30E1F04D37D1F04423C1F0572F842F45
:102A900090E0880F991F9E01280F391FF901859139
:102AA00094918A179B0710F4450FE5CFF9018591A2
:102AB0009491A817B90710F4451BDDCF842FDF913F
:102AC000CF9108950F931F93CF93DF9380E00E94DF
:102AD000AF0C2FEF33E08901081B190BC8010E94CE
:102AE00002158093C8036091C80382E241E00E940E
:102AF00054068091910190919201892BA9F08091C7
:102B00001F058C3308F044C08091CD069091CE060D
:102B1000800F911F9093CE068093CD0680911F0564
:102B20008F5F80931F0534C08091CD069091CE06B3
:102B3000892B71F18091CD069091CE0660911F0591
:102B400070E00E94AA63862F972F9093CE06809301
:102B5000CD068091CD069091CE068C3E910530F049
:102B6000EFE1F3E08081826080830CC08091CD062C
:102B70009091CE06833D910528F0E9EEF3E0808147
:102B8000806280831092CE061092CD0610921F05AF
:102B90000A321105B0F480913B048E3471F080EF5D
:102BA00090E09093730280937202809106038F5F8E
:102BB0008093060388E00E94860F8EE480933B0496
:102BC00019C082E0033B1807A8F080913B048E34C3
:102BD00071F080EF90E09093730280937202809185
:102BE00006038F5F8093060389E00E94860F8EE4C0
:102BF00080933B0481E00E94AF0C2FEF33E0E901AA
:102C0000C81BD90BCE010E9432158093BF0660917C
:102C1000BF0683E241E00E945406CA32D105B0F4F7
:102C200080910703883571F080EF90E090937302F4
:102C300080937202809106038F5F809306038AE07F
:102C40000E94860F88E58093070319C082E0C33B8A
:102C5000D807A8F080910703883571F080EF90E0E5
:102C60009093730280937202809106038F5F80932A
:102C700006038BE00E94860F88E58093070380910E
:102C80003B04843141F580917806909179060817CC
:102C90001907C8F184E00E94860F86E380933B0405
:102CA0008CE291E09093730280937202809106030C
:102CB0008F5F8093060380910603863021F485E1BF
:102CC0000E94860F20C0809106038832E0F086E1E2
:102CD0000E94860F18C080913B04863321F08091BA
:102CE0003B048E3481F48091720290917302892B9F
:102CF00051F480911103909112030817190718F4E9
:102D000084E180933B04809107038C3821F5CB55F7
:102D1000D240A8F185E00E94860F89E380930703E3
:102D200080EF90E09093730280937202809106038B
:102D30008F5F8093060380910603863021F485E13E
:102D40000E94860F1CC0809106038832C0F086E185
:102D50000E94860F14C080910703893321F080916F
:102D60000703883561F4CB55D24048F48091720254
:102D700090917302892B19F48CE880930703DF91FB
:102D8000CF911F910F9108950F931F9396B1969530
:102D9000917080919A058695869586958170981791
:102DA00009F446C08091A5018F5F8093A50196B17B
:102DB000EAE9F5E0990F990F98708081877F892B58
:102DC0008083109272061092710680916F018A3F83
:102DD00028F480916F018F5F80936F0180916F0164
:102DE0008D3308F410C1809118038633D9F4809193
:102DF000BD028E3A41F486E18093FD02ECEFF2E0F1
:102E00008081806480838CE980931803609118032B
:102E10008FE141E00E94220682E08093D6028EE19B
:102E200080933A06E5E4F6E080818F7D8083EBC0F5
:102E30008091710690917206845F914048F4809170
:102E400071069091720601969093720680937106B6
:102E50008091710690917206869738F0E5E4F6E06D
:102E600080818062808310926F01809171069091C1
:102E700072068451914008F4C6C0809118038633CD
:102E800009F4C1C086E380931803609118038FE1B1
:102E900041E00E942206E8E4F5E0808180688E7FB0
:102EA0008083109264031092BD0610929305E9EEA0
:102EB000F3E080818E7F8083809161038B7F80939C
:102EC0006103E8E5F2E080818260808380919A0569
:102ED00084FD04C0EAE9F5E08F7D8083109242040E
:102EE0001092410410923D0510923C051092AF03E0
:102EF0001092AE038091BD028C3B29F58091530264
:102F00008C3049F485E08093FD02ECEFF2E08081A3
:102F10008064808371C081E10E94860F87E1809385
:102F2000BD02ADE1B3E09C91E3EEF2E080818E7FE3
:102F30008460808390659C938CE390E090934C0434
:102F400080934B0459C08091BD028A3779F489E699
:102F50008093BD02ADE1B3E09C91E3EEF2E08081AD
:102F60008E7F8460808390659C9346C08091BD0273
:102F7000853EB1F587E18093BD020DE113E0F801D4
:102F8000808180618083E3EEF2E080818E7F8460C7
:102F9000808384E10E94860F8EE180933A06F801D7
:102FA000808180648083EEEAF1E080818B7E808383
:102FB00010926C00E8E6F0E080818D7F8083E8E588
:102FC000F2E080818F7B8083EFE1F3E0808181609C
:102FD00080838CE390E090934C0480934B040CC06E
:102FE0008091BD028E3A41F486E08093FD02ECEFC1
:102FF000F2E08081806480838091710280FF03C051
:1030000086E980933A061F910F9108950F931F93BD
:1030100080919A03882309F0FBC01D99A3C0809179
:10302000E1029091E202885E934048F48091E102CF
:103030009091E20201969093E2028093E1028091E6
:10304000E1029091E202069720F01092670610923A
:1030500066068091E1029091E2028E55914009F05E
:10306000D7C080911D0381FF04C080913205813556
:1030700050F48091BD02853E09F064C08091480102
:10308000882309F05FC08CE58093BD020DE113E059
:10309000F801808180618083109267061092660635
:1030A00081E00E94860FE3EEF2E080818E7F8460F3
:1030B0008083F801808180648083809161038160D6
:1030C00080936103E8E5F2E08081826080838091F3
:1030D0005F0586FD05C0EFE1F3E0808180688083B5
:1030E000EFE5F5E08081806C808310928A05EEEA3E
:1030F000F1E080818B7E808310926C00E8E6F0E046
:1031000080818D7F8083E8E5F2E080818F7B808302
:103110008CE390E090934C0480934B04EFE1F3E058
:1031200080818460808381E0809321038091B70255
:1031300081FD6EC0E7EBF2E08460808381E08093E4
:103140004C0266C0EDE1F3E08081826080838DE512
:1031500091E09093E2028093E10210926706109250
:10316000660656C08091660690916706885E934019
:1031700048F48091660690916706019690936706E1
:103180008093660680916606909167060697D8F050
:103190001092E2021092E1028091BD02853E99F404
:1031A0008CEB8093BD02EDE1F3E080818061808350
:1031B000EFE1F3E080818B7F80831092BB0410925B
:1031C000BA041092480180911D0381FF21C08091B3
:1031D0003205883220F080913205893220F08091CA
:1031E00032058135A8F0EDE1F3E09081892F8D7FE4
:1031F000808392FF06C0ECE2F5E080818F7D8083C2
:1032000005C0ECE2F5E08081806280831092320597
:103210001F910F910895AF92BF92CF92DF92EF92DC
:10322000FF920F931F9387E00E94AF0C9093E502EB
:103230008093E4022091E4023091E502E090DC0208
:10324000F090DD020091DE021091DF026FEF73E07B
:10325000621B730B80E090E00E94F462A80197016A
:103260000E94FC616093DC027093DD028093DE02B9
:103270009093DF02809118058F5F809318058091ED
:103280001805843608F450C16091DC027091DD02AB
:103290008091DE029091DF0220E030E048EC52E4C1
:1032A0000E9460620E94C8627093FB026093FA02FF
:1032B00080E090E0A0E0B0E08093DC029093DD023B
:1032C000A093DE02B093DF02109218052091FA025B
:1032D0003091FB0282E490E0289FB001299F700D9D
:1032E000389F700D112480E090E00E94F4625B0131
:1032F0006C0120E030E049E453E40E9460620E94E7
:10330000C86270935D0260935C0220915C02309110
:103310005D0289EC90E0289FB001299F700D389FD5
:10332000700D112480E090E00E94F4627B018C011A
:10333000C601B501A80197010E9482631816ACF47A
:10334000C601B501A80197010E94FB610E94C862F5
:1033500066367105F0F080915C0290915D020196F5
:1033600090935D0280935C0214C0C601B501A80170
:1033700097010E94FB610E94C8626636710548F0A1
:1033800080915C0290915D02019790935D02809321
:103390005C0284E20CE512E0F80161918F0141E0EA
:1033A0000E94540685E2F801608141E00E945406C3
:1033B00080915C0290915D02863F9105C0F0809102
:1033C00002028031A1F480915C0290915D028D50E7
:1033D000914010F021E00CC080915C0290915D0260
:1033E0000397909301068093000621E001C020E03E
:1033F0008091FC0288230CF445C080917106909165
:103400007206899708F03EC08091D6028823D1F5D4
:1034100080915C0290915D02843A910548F0809120
:103420005C0290915D028D50914010F4222331F1A5
:1034300080910803882351F080915C0290915D0295
:103440008D52914018F4222309F46EC0ECEFF2E0A3
:1034500080818068808380915C0290915D02843AD3
:10346000910520F48FE00E94860F03C08EE00E9439
:10347000860F1092D0031092CF0356C084E0809341
:10348000080352C080915C0290915D02873A9105D9
:1034900008F446C080915C0290915D028A50914090
:1034A00008F03EC080917106909172068997C0F530
:1034B0002223B1F520915C0230915D0280910006DB
:1034C000909101062817390758F58091CF03909104
:1034D000D0038051974248F48091CF039091D0035C
:1034E00001969093D0038093CF038091CF03909166
:1034F000D0038897C9F484E080930803ECEFF2E0EE
:1035000080818F7780838CE390E090934C0480934C
:103510004B048AE091E0909301068093000604C07A
:103520001092D0031092CF031F910F91FF90EF9054
:10353000DF90CF90BF90AF900895FC018FEFEF3FE9
:10354000F80769F185E0E03AF80740F0CF01805ACA
:10355000954060EA75E00E94AA63FC0180911D0518
:103560008C3229F4309719F4E0EAF5E003C0EC332B
:10357000F10540F0CF016CE370E00E94AA63609314
:10358000840602C0109284062091840684EC9FEF8A
:10359000289F202D11242E0F2093260505C08FEF84
:1035A0008093840680932605E8E5F2E080818861B7
:1035B0008083089580918C018E3129F410927501D9
:1035C00010927401FFC28091BD02833241F080915C
:1035D000BD028E3A21F08091D30386FFF3C2EFE55E
:1035E000F5E080818D7A8083E9EEF3E08081867F4B
:1035F000808380918C012EE0829FC00111249093E2
:10360000D0068093CF06109275011092740110922B
:1036100053026091530288E041E00E94540641E069
:1036200050E060EB76E08091CF069091D006840F59
:10363000951F880F991FFB01E80FF91F8591949141
:103640002091740130917501820F931F9093750141
:10365000809374014E5F5F4F4F30510521F72091E9
:103660007401309175018091CF069091D006880F3A
:10367000991FFC01E653F94F85919491281B390B52
:103680003093750120937401EDE1F3E08081806255
:103690008083809137058823CCF4E0918C01F0E0A1
:1036A000EE0FFF1FE059F74FE4918091CA0190910E
:1036B000CB0120917B0630917C06821B930B8E0FF1
:1036C000911D9093CB018093CA010EC0E0918C01B3
:1036D000F0E0EE0FFF1FE059F74FE4918E2F90E0DE
:1036E0009093CB018093CA01E0918C01F0E0EE0F42
:1036F000FF1FE059F74FE4918E2F90E090937C06E6
:1037000080937B068091CA019091CB018E9730F017
:10371000E9EEF3E080818064808305C0E9EEF3E0A8
:1037200080818F7B80838091FD02833039F080918E
:10373000370588231CF08FEF8093BE0680918C01A3
:10374000873009F044C08091A8019091A90190931D
:10375000CB018093CA018091CA019091CB019093D3
:103760007C0680937B068091450684FF10C0809183
:103770007702909178029093A9018093A80180919B
:10378000A8019091A9019093CB018093CA01EEEB1F
:10379000F6E08081806180838091CA019091CB01A5
:1037A0000A9751F480918C01873031F48091E302C3
:1037B0008F7B8093E30205C08091E3028064809355
:1037C000E302EDE1F3E08081806480830FC0EEEBE3
:1037D000F6E080818F7E80838091E3028F7B8093EF
:1037E000E302EDE1F3E08081806480838091CA018F
:1037F0009091CB010E949D1A8091FD02833009F4C3
:1038000051C18091370588230CF44CC180918C0103
:1038100023E0829FC001112440E958E0FA01E80F3B
:10382000F91FE491E093620380918C01829FC001B3
:1038300011240196FA01E80FF91FE491E093CC01FD
:103840008091CC018093AB0480916203882329F49A
:10385000EEEBF6E080818D7F808380916103887735
:1038600080936103E8E5F2E0808182608083E091EB
:103870008C0183E0E89FF0011124EE56F74FE491AC
:10388000E093770680917706882309F48DC08091B4
:10389000450684FF05C08091A4048093200503C0E1
:1038A00082E080932005809120058093620210922F
:1038B000AB011092AA01809199018F7D80939901AB
:1038C0008091C206897F8093C20680912005823054
:1038D00051F48091C20686608093C2061092AB01BB
:1038E0001092AA0141C0809120058330F1F48091AB
:1038F000C20686608093C20680919901806280939F
:103900009901209177068091CA019091CB01820F95
:10391000911D9093CB018093CA018091770690E02E
:103920009093AB018093AA011FC080912005813044
:10393000D9F48091C20682608093C2068091CA0148
:103940009091CB0120917706821B91099093CB0136
:103950008093CA018091770690E0909581959F4F62
:103960009093AB018093AA018091CA019091CB0101
:103970000E949D1A80E280936705A8E5B2E09C91C1
:10398000892F84608C938091200580937201E9EEE9
:10399000F3E0808184608083EDE1F3E080818068E2
:1039A000808395609C9307C010922005EEEBF6E0B3
:1039B00080818B7F808380917A06877080937A06DE
:1039C00080917A0680937A06A8E4B5E09C91906293
:1039D000EFE1F3E080818F7E8083109210039F7B64
:1039E0009C938091450684FF05C080916605809375
:1039F000CA0303C083E08093CA0380919901897E42
:103A00008093990181E280936705E8E5F2E0808187
:103A1000846080838091CA03813071F48091990120
:103A20008061809399018EE180937201E9EEF3E069
:103A30008081846080832DC08091CA03823071F4BC
:103A4000809199018261809399018CE38093720146
:103A5000E9EEF3E08081846080831BC08091CA031B
:103A6000833071F48091990186618093990188E790
:103A700080937201E9EEF3E080818460808309C065
:103A80001092CA0310927201E9EEF3E08081846023
:103A90008083EDE1F3E080818068808381E00E9493
:103AA0000E100AC0809199018E7F80939901EDE1FB
:103AB000F3E080818068808380918C018B3021F0DD
:103AC00080918C018C3021F481E0809331040AC014
:103AD00080918C01883021F482E08093310402C00F
:103AE0001092310480918C0123E0829FC001112447
:103AF0000196880F991F20EC39E0F901E80FF91FB2
:103B000085919491909379068093780680918C01A9
:103B100046E0849FC00111240496F901E80FF91FC3
:103B200085919491909312038093110380918C015D
:103B3000849FC0011124F901E80FF91F8591949128
:103B400090939C0580939B0510927D06809137058C
:103B5000882324F010925301109252011092060310
:103B6000E8E4F5E08081887F8083109264031092FE
:103B7000BD061092B5048091910190919201CC976D
:103B800030F48CE390E09093920180939101109235
:103B90004C0410924B0410921F051092CE06109206
:103BA000CD06EFE1F3E080818D7F8083E9EEF3E0E5
:103BB00080818F7D8083EEEBF6E080818062808360
:103BC0000E94D30F81E00E940E10E7E3F5E08081B0
:103BD0008F77808308951F9381E080937102809195
:103BE000710290911D03892780FF58C08AEF80934E
:103BF00075058091710280FD28C0809148028F5F19
:103C00008093480210923A0612E01093FD02ECEF06
:103C1000F2E080818064808380E00E940E108EE05C
:103C200080938C01EDE1F3E08081806280831093CA
:103C3000D10680918C0180935502E7E3F5E0808105
:103C40008E7F80830E94DA1A20C010926705E8E513
:103C5000F2E0808184608083E3EEF2E080818A7FFD
:103C60008083EDE1F3E08081806480838EE1809346
:103C70003A068EE080938C0180918C0180935502EE
:103C800083E08093D1060E94DA1AEDE1F3E090918F
:103C90007102917080818E7F892B80831F9108959E
:103CA000AF92BF92CF92DF92EF92FF920F931F934A
:103CB00010929F0310929E038CE8809307030F2EAF
:103CC000F4E1FF2EF02DF0923B0480935C051092FE
:103CD0007501109274011092D9031092D8038FE0ED
:103CE00008ED13E0F80161918F0141E00E94540654
:103CF00080E1F801608141E00E9454061092520474
:103D00001092510410920E0210920D0210922F0583
:103D100010922E0510924706109246061092BC068D
:103D20001092BB061092E8031092E703109234053C
:103D300010923305109228031092270310929103DA
:103D4000109290031092500410924F041092BB03F3
:103D50001092BA0310924E0410924D0410925A021F
:103D6000109259021092A5051092A4051092AC036E
:103D70001092AB03109249021092E2021092E102FB
:103D80001092670610926606F0929A03109248010C
:103D9000109270061092A501ACEFB2E09C911092C7
:103DA000EB031092EA0310927101109270011092CD
:103DB000B504109264031092BD06E8E4F5E080813A
:103DC00010929E0510929D05109293051092190570
:103DD000847F8083EAE9F5E080818D7F8083109283
:103DE00003031092A6041092A50481E080932E0391
:103DF0001092B9041092B80410923A051092E90298
:103E00001092E80210924302109242021092B606FB
:103E10001092B50610926906109268061092090277
:103E20001092080210920D03109264021092630225
:103E300010927D061092DD031092C00210929B0139
:103E40001092F6021092870510920D0510928E03C3
:103E500010928D031092A1051092A0058AE0809324
:103E60006506F0926D050FE515E0F801808181602F
:103E700080831092D4041092D304E3EDF3E08081A8
:103E8000837C8083957F9C93EEEAF1E080818B7E3A
:103E9000808310926C00E8E6F0E080818D7F808363
:103EA000E8E5F2E080818F7B808380E29EE490935E
:103EB00078058093770588EC90E09093B80680931E
:103EC000B706109232050F2EFDE1EF2EF3E0FF2E24
:103ED000F02DF70180818D7F80831092EB05109289
:103EE0004F021092C60210920A031092F50210922D
:103EF00060058AE090E09093A9018093A80188E78B
:103F000080931D0510925301109252018091E3029B
:103F1000877F8093E3020E94DA1A109276020F2EB6
:103F2000F0E0AF2EF0E0BF2EF0E0CF2EF0E0DF2E7D
:103F3000F02DA092DC02B092DD02C092DE02D0929F
:103F4000DF0210921805F80180818D7A8083A9EE36
:103F5000B3E09C91E3EEF2E080818A7F8083F701F9
:103F6000508150641092BC0310925E01109286053D
:103F70001092A7041092BE021092BD011092440448
:103F800010921C051092FF02ECECF4E08081877F18
:103F900080831092640510924B011092CC0610920F
:103FA000CB061092AA041092A904109272051092E6
:103FB0008805967B9C93E7EBF2E080818E7D808381
:103FC0001092D0031092CF0310929C01E5E4F6E02A
:103FD00040811092A3051092A20510924004109205
:103FE0003F041092E6031092E50310924E051092E2
:103FF0004D051092CF0110928B0110928A0120ED95
:1040000037E03093F4022093F3021092B80210923A
:104010004C0110923F0610923E06109249061092F3
:10402000480682EE94E090937E0580937D05109281
:104030000E03109230041092500210922503109239
:1040400027041092D5031092D403109244061092C4
:10405000AD0388E99AE39093DD058093DC059093A6
:1040600063068093620610924704109273021092C6
:104070007202109275023093F4022093F3021092B0
:1040800005038AE091E090930106809300064C724C
:10409000408310929405109224031092EE03109224
:1040A000ED03A0928D01B0928E01C0928F01D0924B
:1040B00090011092BA021092B90210924A01109225
:1040C00049011092090310926105577FF70150834F
:1040D000E7E3F5E0808110924E0210924D021092BB
:1040E000B0021092AF0210924F0110924E01817CEB
:1040F000808310924101109240011092A70110920A
:10410000A6011092800510927F051F910F91FF90DC
:10411000EF90DF90CF90BF90AF9008950F931F93D3
:104120008091D70281FF72C08091BD028C3B21F447
:10413000809153028C3021F08091BD028E3A19F4A7
:104140000E9405105EC080918C01873009F059C033
:104150008091BD02833229F08091BD028E3A09F030
:1041600050C08091F105882339F08091A801909189
:10417000A9010A9709F442C080918C01873039F572
:104180008091A8019091A901803A910539F48AE0C3
:1041900090E09093A9018093A80119C08091A80193
:1041A0009091A901CC9750F08091A8019091A9011C
:1041B00044969093A9018093A80109C08091A80119
:1041C0009091A9010A969093A9018093A8010E9459
:1041D000DA1A80911D058C3261F488E780931D0501
:1041E00010925301109252018091E302877F8093D5
:1041F000E302EDE1F3E08081806480838AEF8093C5
:10420000F105E7EDF2E080818D7F80838091D70218
:1042100082FF47C08091BD028C3B21F48091530204
:104220008C3021F08091BD028E3A41F40E9405103D
:10423000E7EDF2E080818B7F80832EC080917B054B
:1042400080938C0180918C0180935502EDE1F3E025
:104250009081892F8062808388E780931D058091FB
:10426000E302877F8093E3029066908305E416E083
:10427000F8018081806180830E94DA1AF8018081D0
:104280008F7E80838091C20680618093C206E8E5BC
:10429000F2E0808181608083E7EDF2E080818B7FB6
:1042A00080838091D70283FF3DC08091BD028C3B0B
:1042B00021F4809153028C3021F08091BD028E3A1E
:1042C00019F40E94051029C080918C0180937B0510
:1042D000809120058093A4048091CA038093660591
:1042E00080918C01873041F48091A8019091A901BF
:1042F00090937802809377028091C20680618093C8
:10430000C206E8E5F2E0808181608083EAE9F5E0B9
:1043100080818064808310921603E7EDF2E0808153
:10432000877F80838091D70284FFD0C08091BD02B7
:104330008C3B21F4809153028C3021F08091BD029E
:104340008E3A19F40E940510BCC08091BD028332E0
:1043500009F0B7C080917706882309F4B2C0809134
:10436000CA019091CB01805A954008F0AAC0809173
:1043700099018F7D809399018091C206897F8093F6
:10438000C20680912005813009F582E080932005E6
:104390008091C20686608093C20620917706809144
:1043A000CA019091CB01820F911D9093CB01809314
:1043B000CA01209177068091AA019091AB01820FEA
:1043C000911D9093AB018093AA0156C08091200566
:1043D000823031F583E0809320058091C2068660AB
:1043E0008093C20680919901806280939901209107
:1043F00077068091CA019091CB01820F911D909315
:10440000CB018093CA01209177068091AA019091F7
:10441000AB01820F911D9093AB018093AA012CC038
:1044200080912005833041F581E0809320058091C3
:10443000C20682608093C206409177062091CA012D
:104440003091CB01842F90E0880F991F281B390BE6
:104450003093CB012093CA01409177062091AA01A5
:104460003091AB01842F90E0880F991F281B390BE6
:104470003093AB012093AA018091CA019091CB01A6
:104480000E949D1A809120058093620280E28093B1
:104490006705A8E5B2E09C91892F84608C93809198
:1044A000200580937201E9EEF3E0808184608083CF
:1044B000EDE1F3E080818068808395609C930E94A9
:1044C000D30FE7EDF2E080818F7E80838091D70269
:1044D00085FF70C08091BD028C3B21F48091530216
:1044E0008C3021F08091BD028E3A19F40E940510A3
:1044F0005CC080919901897E8093990181E28093CB
:104500006705E8E5F2E08081846080838091CA03DA
:10451000882389F481E08093CA03809199018061A6
:10452000809399018EE180937201E9EEF3E080813E
:104530008460808333C08091CA03813089F482E033
:104540008093CA03809199018261809399018CE3E1
:1045500080937201E9EEF3E08081846080831EC065
:104560008091CA03823089F483E08093CA038091EA
:10457000990186618093990188E780937201E9EE41
:10458000F3E080818460808309C01092CA03109296
:104590007201E9EEF3E0808184608083EDE1F3E075
:1045A0008081806880830E94D30FE7EDF2E08081F4
:1045B0008F7D80838091D70286FF92C18091BD025A
:1045C0008C3B21F4809153028C3021F08091BD020C
:1045D0008E3A19F40E9405107EC18091BD0283328B
:1045E00029F08091BD028E3A09F075C180911D05B8
:1045F000883709F045C080914B02882309F029C112
:104600008CE280931D058091CA019091CB014E9759
:1046100090F48091CA019091CB012EE130E0A90184
:10462000481B590B50935301409352013093CB01D7
:104630002093CA010EC12091CA013091CB012E31C5
:10464000310538F0C9014E976EE170E00E94AA630F
:104650009C018EE190E0821B930B90935301809319
:10466000520120915201309153018091CA019091E1
:10467000CB01820F931F9093CB018093CA01E9C0B5
:104680008091CA019091CB018856914008F053C0A7
:104690008091CA019091CB016EE170E00E94AA6303
:1046A000892B99F480915201909153014E969093E9
:1046B0005301809352018091CA019091CB014E9693
:1046C0009093CB018093CA01C4C04091CA0150911C
:1046D000CB014E31510538F0CA014E976EE170E0C2
:1046E0000E94AA63AC018091CA019091CB012091F4
:1046F000520130915301821B930B9093CB01809315
:10470000CA0180915201909153014E96841B950BE2
:1047100090935301809352012091520130915301A3
:104720008091CA019091CB01820F931F9093CB018E
:104730008093CA018EC08091CA019091CB01805AAA
:10474000954008F053C08091CA019091CB016CE371
:1047500070E00E94AA63892B99F480915201909194
:104760005301CC9690935301809352018091CA01DA
:104770009091CB01CC969093CB018093CA0169C0F4
:104780004091CA015091CB014C33510538F0CA0118
:10479000CC976CE370E00E94AA63AC018091CA01DF
:1047A0009091CB012091520130915301821B930BC8
:1047B0009093CB018093CA01809152019091530153
:1047C000CC96841B950B90935301809352012091BA
:1047D0005201309153018091CA019091CB01820F17
:1047E000931F9093CB018093CA0133C08091CA017B
:1047F0009091CB012091520130915301821B930B78
:104800009093CB018093CA0188E780931D050E9495
:10481000DA1A80915201909153016CE370E00E948A
:10482000AA636093750680915201909153016CE3E5
:1048300070E00E94AA63809373016091750680E422
:1048400041E00E9454066091730181E441E00E94BE
:10485000540680911D05883759F48091E302877FC3
:104860008093E302EDE1F3E08081806480830AC0FD
:104870008091E30288608093E302EDE1F3E08081C0
:104880008064808380915201909153016CE370E0C9
:104890000E94AA6360937506809152019091530122
:1048A0006CE370E00E94AA638093730160917506C7
:1048B00080E441E00E9454066091730181E441E08C
:1048C0000E9454068091CA019091CB010E949D1ACA
:1048D0008AEF80934B02E7EDF2E080818F7B80834B
:1048E0001F910F91089580913404882309F44EC4D8
:1048F00080913404982F907C80913404282F2F735A
:10490000992309F0F7C02A3108F07EC08091BD02DA
:10491000883409F479C0293119F41092CA0202C00E
:104920002093CA0280912403813009F069C08091EC
:10493000CA019091CB012091520130915301821B09
:10494000930B9093CB018093CA018091CA0230915E
:10495000FE022CE3829FC0011124830F911D9093CE
:104960005301809352012091CA013091CB01809173
:10497000520190915301820F931F8556954060F02C
:104980002091CA013091CB0184E695E0821B930B04
:104990009093530180935201209152013091530121
:1049A0008091CA019091CB01820F931F9093CB010C
:1049B0008093CA018CE280931D051092240380919C
:1049C0005201909153016CE370E00E94AA636093DE
:1049D000750680915201909153016CE370E00E9442
:1049E000AA63809373016091750680E441E00E94A0
:1049F00054066091730181E441E00E94540655C061
:104A000082E08093240351C02B3151F48091BD0288
:104A1000883431F4E7E3F5E080818062808345C02B
:104A20002C3151F48091BD02883431F4E7E3F5E094
:104A300080818F7D808339C08091CA019091CB01A4
:104A40002091520130915301821B930B9093CB0123
:104A50008093CA01109253011092520188E780930B
:104A60001D051092240310929F0580915201909190
:104A700053016CE370E00E94AA6360937506809115
:104A80005201909153016CE370E00E94AA638093FD
:104A900073016091750680E441E00E9454066091C4
:104AA000730181E441E00E9454068091BD02883484
:104AB00009F46AC380911D05883759F48091E30297
:104AC000877F8093E302EDE1F3E08081806480835F
:104AD0000AC08091E30288608093E302EDE1F3E095
:104AE0008081806480838091CA019091CB010E9473
:104AF0009D1A4AC3903409F000C18091BD028834E8
:104B000009F4FBC080918C01873009F078C0222322
:104B100009F421E08AE0289FC00111249093A901A3
:104B20008093A801E7E3F5E08081806880830E949C
:104B3000DA1A80911D058C3261F588E780931D0596
:104B400010925301109252018091E302877F80936B
:104B5000E30280915201909153016CE370E00E9456
:104B6000AA636093750680915201909153016CE3A2
:104B700070E00E94AA63809373016091750680E4DF
:104B800041E00E9454066091730181E441E00E947B
:104B90005406EDE1F3E0808180648083F5C280916A
:104BA000AB0486958093AB048091CA019091CB01B0
:104BB0000A979093CB018093CA0180919E019091B6
:104BC0009F010A9790939F0180939E018091AB046F
:104BD0008823B1F43093AB048091CA019091CB014A
:104BE000CC969093CB018093CA0180919E019091C5
:104BF0009F01CC9690939F0180939E0101C030E26B
:104C00008091AB04821759F68091CA019091CB0133
:104C10000E949D1A82E280936705E8E5F2E08081B8
:104C2000846080838091AB04813049F480EA809372
:104C30007201E9EEF3E080818460808340C080915E
:104C4000AB04823049F48CE880937201E9EEF3E022
:104C500080818460808333C08091AB04843049F4C8
:104C600088E780937201E9EEF3E0808184608083BD
:104C700026C08091AB04883049F484E680937201A9
:104C8000E9EEF3E080818460808319C08091AB04F9
:104C9000803149F480E580937201E9EEF3E0808190
:104CA000846080830CC08091AB04803241F48CE33B
:104CB00080937201E9EEF3E08081846080839091BB
:104CC000AB048091CC01981759F080916103806802
:104CD00080936103E8E5F2E080818260808354C2C2
:104CE000809161038F7780936103E8E5F2E0808132
:104CF000826080831092C60247C2903809F0E9C1F1
:104D00008091BD02883409F4E4C1243008F0D2C097
:104D100020932005809199018F7D80939901809146
:104D2000C206897F8093C20680912005823061F59A
:104D30008091C20686608093C2061092AB011092E9
:104D4000AA0180916202813069F4209177068091F6
:104D5000CA019091CB01820F911D9093CB0180935A
:104D6000CA0184C080916202833009F07FC08091C3
:104D7000CA019091CB0120917706821B91099093F3
:104D8000CB018093CA0172C0809120058330B1F5B8
:104D90008091C20686608093C206809199018062EC
:104DA0008093990180916202813081F4809177062D
:104DB0002091CA013091CB0190E0880F991F820F9A
:104DC000931F9093CB018093CA0110C0809162021F
:104DD000823061F4209177068091CA019091CB01D5
:104DE000820F911D9093CB018093CA018091770629
:104DF00090E09093AB018093AA0138C08091200588
:104E00008130A1F58091C20682608093C2068091B4
:104E10006202833089F4409177062091CA01309173
:104E2000CB01842F90E0880F991F281B390B3093FA
:104E3000CB012093CA0110C080916202823061F4DC
:104E40008091CA019091CB0120917706821B910934
:104E50009093CB018093CA018091770690E0909562
:104E600081959F4F9093AB018093AA018091CA01D5
:104E70009091CB010E949D1A80912005809362023F
:104E800080E280936705A8E5B2E09C91892F846059
:104E90008C938091200580937201E9EEF3E080818C
:104EA00084608083EDE1F3E0808180688083956099
:104EB0009C936AC18091BD02833209F065C18091E3
:104EC000CA019091CB01805A954008F05DC1809154
:104ED0006203882309F458C1263009F049C036C05E
:104EE0008091AB0486958093AB048091CA01909128
:104EF000CB010A979093CB018093CA0180919E01C8
:104F000090919F010A9790939F0180939E018091B9
:104F1000AB048823A1F42093AB048091CA01909143
:104F2000CB01CC969093CB018093CA0180919E01D6
:104F300090919F01CC9690939F0180939E019091B8
:104F4000AB0480916203892359F201C020E2909161
:104F5000AB048091CC01981719F6809161038F778B
:104F600080936103E8E5F2E0808182608083AAC0DB
:104F70002530B1F520E28091AB0486958093AB0497
:104F80008091CA019091CB010A979093CB018093B5
:104F9000CA0180919E0190919F010A9790939F0171
:104FA00080939E018091AB048823A1F42093AB04ED
:104FB0008091CA019091CB01CC969093CB018093C4
:104FC000CA0180919E0190919F01CC9690939F0180
:104FD00080939E019091AB0480916203892359F2E2
:104FE00082E280936705E8E5F2E080818460808357
:104FF0008091AB04813049F480EA80937201E9EE3C
:10500000F3E080818460808340C08091AB04823073
:1050100049F48CE880937201E9EEF3E080818460CA
:10502000808333C08091AB04843049F488E7809357
:105030007201E9EEF3E080818460808326C0809174
:10504000AB04883049F484E680937201E9EEF3E022
:1050500080818460808319C08091AB04803149F4E1
:1050600080E580937201E9EEF3E0808184608083C3
:105070000CC08091AB04803241F48CE380937201C8
:10508000E9EEF3E08081846080839091AB048091AD
:10509000CC01981759F08091610380688093610377
:1050A000E8E5F2E08081826080830CC0809161033A
:1050B0008F7780936103E8E5F2E0808182608083EE
:1050C0001092C6028091CA019091CB010E949D1A54
:1050D0005BC0903C09F058C08091BD02883409F44F
:1050E00053C02093CA0380919901897E80939901CE
:1050F00081E280936705E8E5F2E080818460808347
:105100008091CA03813071F480919901806180930C
:1051100099018EE180937201E9EEF3E08081846071
:1051200080832DC08091CA03823071F480919901EF
:105130008261809399018CE380937201E9EEF3E040
:105140008081846080831BC08091CA03833071F4A6
:105150008091990186618093990188E7809372011B
:10516000E9EEF3E080818460808309C01092CA0375
:1051700010927201E9EEF3E0808184608083EDE1BA
:10518000F3E08081806880831092340480919F05D1
:10519000882309F4A9C08091BD02883409F4A4C011
:1051A00080919F0580919F058F7309F49DC08D3379
:1051B00008F079C08C3319F41092FE0202C080937B
:1051C000FE0280912403823009F069C08091CA01F7
:1051D0009091CB012091520130915301821B930B8E
:1051E0009093CB018093CA018091CA023091FE0254
:1051F0002CE3829FC0011124830F911D90935301D2
:10520000809352012091CA013091CB0180915201CB
:1052100090915301820F931F8556954060F0209125
:10522000CA013091CB0184E695E0821B930B9093E9
:10523000530180935201209152013091530180918A
:10524000CA019091CB01820F931F9093CB01809361
:10525000CA018CE280931D051092240380915201B3
:10526000909153016CE370E00E94AA63609375060D
:1052700080915201909153016CE370E00E94AA6307
:10528000809373016091750680E441E00E945406AA
:105290006091730181E441E00E94540606C081E000
:1052A0008093240302C01092240380911D05883747
:1052B00059F48091E302877F8093E302EDE1F3E00C
:1052C0008081806480830AC08091E302886080933B
:1052D000E302EDE1F3E08081806480838091CA0184
:1052E0009091CB010E949D1A10929F050895809184
:1052F0007D06803208F0D5C380913104813009F0F9
:10530000C6C080912E03882309F061C080910303F9
:10531000803208F44BC08091A5049091A604969524
:105320008795929582958F7089279F708927909392
:10533000A6048093A5048091A5048093D80280914F
:10534000D802809580932E0380912E0386958695B2
:1053500080932E0390912E038091D802890F809321
:105360002E03EEEFFAE045915491CA018F779070C9
:105370009C01220F331F880F991F880F991F880FD8
:10538000991F280F391F309337062093360640782F
:105390005070440F452F441F550B519540934201C7
:1053A0008091D802869580931C0311C08091C00221
:1053B0002091A5043091A604280F311D3093A60436
:1053C0002093A504809103038F5F80930303809152
:1053D0002E03882309F4F4C187E08093430164E13C
:1053E0007BE046E050E0FB012591349180919E03E3
:1053F00090919F032817390708F03DC0CA01880F14
:10540000991F880F991F02966CEF7AE0FB01E80F55
:10541000F91F8591949190932E034091430150E0A0
:10542000440F551F440F551F42505040FB01E40FDD
:10543000F51F859194918F7790709C01220F331FF7
:10544000880F991F880F991F880F991F280F391FE0
:105450003093370620933606FB01E40FF51F859144
:10546000949180789070880F892F881F990B91955F
:1054700080934201A5C14093430141505040645084
:1054800070402FEF4F3F520709F0ADCF99C1809187
:105490003104823009F0C6C080912E03882309F0C0
:1054A00061C080910303803208F44BC08091A50451
:1054B0009091A60496958795929582958F708927ED
:1054C0009F7089279093A6048093A5048091A504DA
:1054D0008093D8028091D802809580932E0380918A
:1054E0002E038695869580932E0390912E038091AE
:1054F000D802890F80932E03EAE1FBE04591549195
:10550000CA018F7790709C01220F331F880F991F5B
:10551000880F991F880F991F280F391F309337065E
:105520002093360640785070440F452F441F550B8A
:105530005195409342018091D802869580931C0337
:1055400011C08091C0022091A5043091A604280FBB
:10555000311D3093A6042093A504809103038F5F2F
:105560008093030380912E03882309F429C187E0E7
:105570008093430160E37BE046E050E0FB0125912E
:10558000349180919E0390919F032817390708F06A
:105590003DC0CA01880F991F880F991F029668E1C4
:1055A0007BE0FB01E80FF91F8591949190932E0306
:1055B0004091430150E0440F551F440F551F425086
:1055C0005040FB01E40FF51F859194918F77907007
:1055D0009C01220F331F880F991F880F991F880F76
:1055E000991F280F391F3093370620933606FB0189
:1055F000E40FF51F8591949180789070880F892F22
:10560000881F990B919580934201DAC04093430122
:1056100041505040645070408FEF4F3F580709F0A1
:10562000ADCFCEC080912E03882309F06AC080914F
:105630000303803208F454C08091A5049091A6041D
:1056400096958795929582958F7089279F70892767
:105650009093A6048093A5048091A5048093D8021A
:105660008091D802809580932E0380912E03869599
:105670008695869580932E0380912E0323E0829F4A
:10568000C001112480932E0390912E038091D802A3
:10569000890F80932E03E2EEFAE045915491CA01FE
:1056A0008F7790709C01220F331F880F991F880FEE
:1056B000991F880F991F280F391F309337062093A1
:1056C000360640785070440F452F441F550B5195B6
:1056D000409342018091D802869580931C0311C0AB
:1056E0008091C0022091A5043091A604280F311D9D
:1056F0003093A6042093A504809103038F5F8093C9
:10570000030380912E03882309F45AC087E0809315
:10571000430168EF7AE046E050E0FB0125913491C7
:1057200080919E0390919F032817390708F03DC090
:10573000CA01880F991F880F991F029660EE7AE0C0
:10574000FB01E80FF91F8591949190932E034091EE
:10575000430150E0440F551F440F551F4250504025
:10576000FB01E40FF51F859194918F7790709C0158
:10577000220F331F880F991F880F991F880F991FB9
:10578000280F391F3093370620933606FB01E40FAC
:10579000F51F8591949180789070880F892F881FCC
:1057A000990B9195809342010BC040934301415066
:1057B0005040645070402FEF4F3F520709F0ADCF7B
:1057C00080912E03882309F46CC18091630290912B
:1057D0006402CC9708F465C19091C00280912E03B9
:1057E000981708F4F9C080913104813009F03CC069
:1057F00080934301EAE3FBE02591349180919E037D
:1058000090919F038217930760F1ECE3FBE02591F1
:10581000349180919E0390919F032817390708F1D6
:105820002091C0024EE35BE0FA018591949130E053
:10583000907028173907A8F02091C002FA018591CD
:10584000949130E0892F99278217930750F0809127
:105850000802909109020196909309028093080230
:1058600081C0109243017EC080913104823009F0E2
:105870003DC081E080934301E0E4FBE02591349159
:1058800080919E0390919F038217930760F1E2E459
:10589000FBE02591349180919E0390919F032817FE
:1058A000390708F12091C00244E45BE0FA018591D8
:1058B000949130E0907028173907A8F02091C00229
:1058C000FA018591949130E0892F992782179307E7
:1058D00050F080910802909109020196909309027C
:1058E000809308023FC0109243013CC081E0809346
:1058F0004301E4E3FBE02591349180919E03909174
:105900009F038217930760F1E6E3FBE02591349152
:1059100080919E0390919F032817390708F12091E9
:10592000C00248E35BE0FA018591949130E0907009
:1059300028173907A8F02091C002FA0185919491A7
:1059400030E0892F99278217930750F08091080241
:10595000909109020196909309028093080202C077
:10596000109243012091080230910902809136067D
:10597000909137068217930760F580E280937D0649
:105980008093DD0380919E0390919F038C579541F6
:1059900028F4ECEFF2E08081806180838091310413
:1059A0008823A1F480915001803E81F08091E90329
:1059B00086FF0CC088E290E09093CB018093CA01EF
:1059C0008091CA019091CB010E949D1A85E080933D
:1059D000760210920D03089580914201882309F008
:1059E00060C0809131048130F9F480910D038F3FC4
:1059F00029F080910D038F5F80930D0380910D033B
:105A0000882309F44EC080910802909109028F3FCB
:105A1000910508F046C080919E0390919F031092DB
:105A20000902109208020895809131048230E9F44D
:105A300080910D038F3F29F080910D038F5F80933C
:105A40000D0380910D03882361F1809108029091EC
:105A500009028F3F910528F580919E0390919F0345
:105A60001092090210920802089580910D038F3F51
:105A700029F080910D038F5F80930D0380910D03BA
:105A8000882379F080910802909109028F3F910557
:105A900040F480919E0390919F031092090210920E
:105AA0000802089580917D06803408F04FC020914F
:105AB00063023091640280912C0390912D0328178A
:105AC0003907C0F58091C002863C50F18091630295
:105AD00090916402019690936402809363022091F6
