:020000020000FC
:0200000009C035
:10001400002401E0102E0FEF0DBF00E10EBF2D9A5A
:100024002E9A269A1DD000E002BD00E001BD009189
:10003400660000BD04E00FBB06E00FBB0000F999A9
:10004400FECF18E000E423B125FFFDCF35B1302702
:1000540023B125FDFDCF35B91A95A9F70000FFCFCF
:10006400662781E050E4650F60936600000000009D
:1000740034D0403081F15695552331F0052F41306D
:1000840009F40195600FF0CF413011F051E001C047
:100094005FEF650F60936600000000001ED04030E3
:1000A400D1F0650F609366000000000016D0403068
:1000B40091F05195550F550F650F60936600000040
:1000C40000000BD0403039F0882319F08A9560E89D
:1000D400C9CF269AC4CF462F0895332401E0402E79
:1000E40006E206BC11E01D9BFECF1D99FECF15BD97
:1000F40025B320FF02C0310C45BA1D9BFECF25B3AA
:1001040020FF02C0310C45BA1D99FECF25B320FF54
:1001140002C0310C45BA1D9BFECF25B320FF02C09F
:10012400310C45BA1D99FECF0A9581F725B320FFFE
:1001340002C0310C45BA1D9BFECF25B320FF02C07F
:10014400310C45BA1D99FECF05BC25B320FF04C070
:100154000894301C217025BB26B411EB26E221162D
:1001640032063CF411EF25E21215230524F440E095
:0A017400089541E008954FEF08954B
:00000001FF
